:020000040800F2
:100000001435012089010008E5010008E501000818
:10001000E5010008E5010008E50100080000000016
:10002000000000000000000000000000E5010008E2
:10003000E501000800000000E5010008E5010008F6
:10004000E5010008E5010008E5010008E5010008F8
:10005000E5010008E5010008E5010008E5010008E8
:10006000E5010008E5010008E5010008E5010008D8
:10007000E5010008E5010008E5010008E5010008C8
:10008000E5010008E5010008E5010008E5010008B8
:10009000E5010008E5010008E5010008E5010008A8
:1000A000E5010008E5010008E5010008E501000898
:1000B000C5160008E5010008E5010008E501000893
:1000C000E5010008E5010008E5010008E501000878
:1000D000E5010008E5010008E5010008E501000868
:1000E000E5010008E5010008E5010008E501000858
:1000F000E5010008E5010008E5010008E501000848
:10010000E5010008E5010008E5010008E501000837
:10011000E5010008E5010008E5010008E501000827
:10012000E5010008E5010008E5010008E501000817
:10013000E5010008E5010008E5010008E501000807
:10014000E5010008E5010008E5010008E5010008F7
:1001500081170008E5010008E5010008E501000835
:10016000E5010008E5010008E5010008E5010008D7
:10017000E5010008E5010008E5010008E5010008C7
:10018000E5010008E501000880B582B000AF104B22
:100190007B60104B3B6007E03B681A1D3A607A6851
:1001A000111D796012681A603B680B4A9342F3D3C1
:1001B0000A480B494FF000028842B8BF40F8042BB0
:1001C000FADB00F013F800BF0837BD4680BD00BF62
:1001D00010230008000000201C0000201C0000204C
:1001E000182D012080B400AFFEE700BF90B5A5B088
:1001F00000AF00F007FE01F0AFF81C2001F0ECF8B2
:10020000904B1A68904B1B681946104602F030F864
:100210000346002B74D08C4B1B68184602F032F852
:100220000346C7F88C305DE00023C7F888304EE005
:10023000864B1A68864B1B681946104601F052FD22
:1002400003461C467F4B1A687F4B1B6819461046B5
:1002500001F048FD03461946204601F001FF034620
:100260001C46D7F88C0001F0F3FD0246764B1B6864
:100270001946104601F036FD03461946204601F0A6
:100280003BFE03461A46724B1B681946104601F0A6
:100290002BFD0346FB62D7F88C309CB2D7F8880060
:1002A00001F0D6FD0346F96A184601F01DFD03462C
:1002B000184602F00DF803469BB20A221946204662
:1002C00001F0ACF8D7F888300133C7F88830614BBB
:1002D0001B68D7F888209A42AADBD7F88C30013304
:1002E000C7F88C30D7F88C0001F0B2FD0246554BB0
:1002F0001B681946104601F0A7FF0346002B93D157
:10030000504B1A68504B1B681946104601F092FF7B
:100310000346002B74D04B4B1B68184601F0B2FF0C
:100320000346C7F884305DE00023C7F880304EE014
:10033000464B1A68464B1B681946104601F0D2FC22
:1003400003461C463F4B1A683F4B1B681946104634
:1003500001F0C8FC03461946204601F081FE034621
:100360001C46D7F8840001F073FD0246364B1B682B
:100370001946104601F0B6FC03461946204601F026
:10038000BBFD03461A46324B1B681946104601F066
:10039000ABFC0346BB62D7F884309CB2D7F8800030
:1003A00001F056FD0346B96A184601F09DFC03466C
:1003B000184601F08DFF03469BB20A2219462046DB
:1003C00001F02CF8D7F880300133C7F88030214B8A
:1003D0001B68D7F880209A42AADBD7F88430013313
:1003E000C7F88430D7F8840001F032FD0246164B7E
:1003F0001B681946104601F027FF0346002B93D1D6
:10040000114B1A680F4B1B681946104601F008FF84
:100410000346002B4AD00D4B1A680D4B1B6819463A
:10042000104601F025FF0346002B3FD0084B1B6808
:10043000184601F027FF0346FB672AE00023BB674D
:100440001FE000BF0400002000000020100000207A
:100450000C000020180000207F4B1B687B62786A2C
:1004600001F036FF034698B2FB6F9AB2BB6F9BB2A6
:1004700013449BB20A22194600F0D0FFBB6F013330
:10048000BB67764B1B68BA6F9A42E5DBFB6F0133A3
:10049000FB67F86F01F0DCFC0246714B1B681946E4
:1004A000104601F0D1FE0346002BC7D16A4B1A68F3
:1004B0006C4B1B681946104601F0B2FE0346002B38
:1004C0003FD0674B1A68684B1B681946104601F00D
:1004D000B1FE0346002B34D0614B1B68184601F077
:1004E000D1FE03467B671FE000233B6714E05A4BB5
:1004F0001B683B62386A01F0EBFE034698B27B6FE3
:100500009AB23B6F9BB213449BB20A22194600F089
:1005100085FF3B6F01333B67504B1B683A6F9A4234
:10052000E5DB7B6F01337B67786F01F091FC02465E
:100530004D4B1B681946104601F086FE0346002B02
:10054000D2D14A4B1A68474B1B681946104601F036
:100550008FFE0346002B69D0424B1B68184601F002
:1005600091FE0346FB6654E00023BB6649E0404B26
:100570001A683B4B1B681946104601F0B3FB034653
:100580001C463A4B1A68374B1B681946104601F057
:10059000A9FB03461946204601F062FD03461C46AE
:1005A000F86E01F055FC02462E4B1B6819461046AA
:1005B00001F098FB03461946204601F09DFC0346D6
:1005C0001A46274B1B681946104601F08DFB03465F
:1005D000FB61FB6E9CB2B86E01F03AFC0346F96910
:1005E000184601F081FB0346184601F071FE0346F0
:1005F0009BB20A221946204600F010FFBB6E013361
:10060000BB66164B1B68BA6E9A42B0DBFB6E0133B9
:10061000FB66F86E01F01CFC0246144B1B68194681
:10062000104601F011FE0346002B9DD10F4B1A68B6
:100630000C4B1B681946104601F0FCFD0346002BCD
:1006400077D00A4B1B68184601F01CFE03467B66F8
:1006500062E000233B6657E0000000201800002005
:1006600010000020040000200C00002008000020E2
:1006700014000020854B1A68854B1B6819461046EC
:1006800001F030FB03461C46824B1A68824B1B6804
:100690001946104601F026FB03461946204601F094
:1006A000DFFC03461C46786E01F0D2FB02467A4B13
:1006B0001B681946104601F015FB034619462046F3
:1006C00001F01AFC03461A46714B1B681946104686
:1006D00001F00AFB0346BB617B6E9CB2386E01F0F1
:1006E000B7FB0346B969184601F0FEFA03461846FF
:1006F00001F0EEFD03469BB20A221946204600F0A7
:100700008DFE3B6E01333B66644B1B683A6E9A422A
:10071000B0DB7B6E01337B66786E01F099FB02469D
:100720005D4B1B681946104601F08EFD0346002BF9
:100730008FD1594B1A68574B1B681946104601F068
:100740006FFD0346002B3FD0504B1A68504B1B687F
:100750001946104601F08CFD0346002B34D04C4B5B
:100760001B68184601F08EFD0346FB651FE0002361
:10077000BB6514E0484B1B687B61786901F0A8FDFC
:10078000034698B2FB6D9AB2BB6D9BB213449BB209
:100790000A22194600F042FEBB6D0133BB653F4B98
:1007A0001B68BA6D9A42E5DBFB6D0133FB65F86DA2
:1007B00001F04EFB0246354B1B681946104601F00E
:1007C00043FD0346002BD2D1334B1A68314B1B68D3
:1007D0001946104601F024FD0346002B3FD02B4B59
:1007E0001A682B4B1B681946104601F023FD03467F
:1007F000002B34D0254B1B68184601F043FD0346FF
:100800007B651FE000233B6514E0234B1B683B61C5
:10081000386901F05DFD034698B27B6D9AB23B6D7D
:100820009BB213449BB20A22194600F0F7FD3B6DC0
:1008300001333B65194B1B683A6D9A42E5DB7B6DD2
:1008400001337B65786D01F003FB0246104B1B689A
:100850001946104601F0F8FC0346002BD2D10D4B8F
:100860001A680F4B1B681946104601F001FD03463C
:10087000002B76D00A4B1B68184601F003FD034697
:10088000FB6461E00023BB6456E000BF140000205D
:1008900010000020080000200400002018000020A4
:1008A000000000209B4B1A689B4B1B6819461046A2
:1008B00001F018FA03461C46984B1A68984B1B68BF
:1008C0001946104601F00EFA03461946204601F07B
:1008D000C7FB03461C46F86C01F0BAFA0246904B7F
:1008E0001B681946104601F0FDF9034619462046DB
:1008F00001F002FB03461A46874B1B681946104657
:1009000001F0F2F90346FB60FB6C9CB2B86C01F09D
:100910009FFA0346F968184601F0E6F903461846BF
:1009200001F0D6FC03469BB20A221946204600F08D
:1009300075FDBB6C0133BB647A4B1B68BA6C9A4281
:10094000B0DBFB6C0133FB64F86C01F081FA02460A
:10095000724B1B681946104601F076FC0346002BCB
:1009600090D16E4B1A686E4B1B681946104601F009
:1009700061FC0346002B69D0684B1B68184601F0E8
:1009800081FC03467B6454E000233B6449E0614BF7
:100990001A68614B1B681946104601F0A3F903461B
:1009A0001C465E4B1A685E4B1B681946104601F0E8
:1009B00099F903461946204601F052FB03461C46AE
:1009C000786C01F045FA0246554B1B6819461046F3
:1009D00001F088F903461946204601F08DFA0346D6
:1009E0001A464D4B1B681946104601F07DF9034627
:1009F000BB607B6C9CB2386C01F02AFA0346B96884
:100A0000184601F071F90346184601F061FC0346EF
:100A10009BB20A221946204600F000FD3B6C0133D0
:100A20003B64404B1B683A6C9A42B0DB7B6C0133F1
:100A30007B64786C01F00CFA0246394B1B6819464E
:100A4000104601F001FC0346002B9DD1344B1A687F
:100A5000324B1B681946104601F0E2FB0346002B9F
:100A60003FD02C4B1A682C4B1B681946104601F0DE
:100A7000FFFB0346002B34D0274B1B68184601F0C0
:100A800001FC0346FB631FE00023BB6314E0244B1F
:100A90001B687B60786801F01BFC034698B2FB6B17
:100AA0009AB2BB6B9BB213449BB20A22194600F068
:100AB000B5FCBB6B0133BB631A4B1B68BA6B9A4224
:100AC000E5DBFB6B0133FB63F86B01F0C1F9024618
:100AD000104B1B681946104601F0B6FB0346002B6D
:100AE000D2D10F4B1A680D4B1B681946104601F006
:100AF00097FB0346002B00D14BE0064B1A68064BD0
:100B00001B681946104601F095FB0346002B0BD1DC
:100B10003FE000BF140000200C000020080000206F
:100B200000000020180000201A4B1B68184601F036
:100B3000A9FB03467B631FE000233B6314E0164BD5
:100B40001B683B60386801F0C3FB034698B27B6BBF
:100B50009AB23B6B9BB213449BB20A22194600F037
:100B60005DFC3B6B01333B630C4B1B683A6B9A4259
:100B7000E5DB7B6B01337B63786B01F069F902463F
:100B8000074B1B681946104601F05EFB0346002B1D
:100B9000D2D1FEE714000020000000201800002041
:100BA0000C00002080B483B000AF78600B46FB706F
:100BB000FB78002B06D00949084B1A6B7B6813435E
:100BC0000B6306E00549054B1A6B7B68DB4313405A
:100BD0000B6300BF0C37BD4680BC70470038024035
:100BE00080B483B000AF78600B46FB70FB78002BBD
:100BF00006D00949084B1A6C7B6813430B6406E066
:100C00000549054B1A6C7B68DB4313400B6400BF3E
:100C10000C37BD4680BC70470038024080B483B0BA
:100C200000AF78600B46FB70FB78002B06D00949BB
:100C3000084B5A6C7B6813434B6406E00549054B2F
:100C40005A6C7B68DB4313404B6400BF0C37BD46D6
:100C500080BC70470038024080B487B000AF786035
:100C6000396000237B6100233B610023FB6000238C
:100C70007B6176E001227B6902FA03F33B613B680A
:100C80001A683B691340FB60FA683B699A4265D178
:100C90007B681A687B695B00032101FA03F3DB437D
:100CA0001A407B681A607B681A683B681B79194692
:100CB0007B695B0001FA03F31A437B681A603B68A7
:100CC0001B79012B03D03B681B79022B2ED17B684B
:100CD0009A687B695B00032101FA03F3DB431A4046
:100CE0007B689A607B689A683B685B7919467B6988
:100CF0005B0001FA03F31A437B689A607B685A68C9
:100D00007B699BB2012101FA03F3DB431A407B6844
:100D10005A607B685A683B689B7919467B699BB22D
:100D200001FA03F39BB21A437B685A607B68DA6866
:100D30007B699BB25B00032101FA03F3DB431A409A
:100D40007B68DA607B68DA683B68DB7919467B6927
:100D50005B0001FA03F31A437B68DA607B690133B5
:100D60007B617B690F2B85D900BF1C37BD4680BCDA
:100D7000704700BF80B485B000AF78600B467B80C1
:100D800013467B700023FB600023BB607A787B886E
:100D900003F007039B0002FA03F3FB607B88DB0888
:100DA0009BB218467B88DB089BB21A467B680832E8
:100DB00053F822207B8803F007039B000F2101FAE0
:100DC00003F3DB4302EA03017B6800F1080243F806
:100DD00022107B88DB089BB21A467B68083253F8E6
:100DE0002220FB681343BB607B88DB089BB21A465A
:100DF0007B680832B96843F8221000BF1437BD463B
:100E000080BC704780B500AF124A124B1B6843F09C
:100E1000010313600F4B00229A600E4A0D4B1B68B2
:100E200023F0847323F4803313600A4B0A4A5A6018
:100E3000084A084B1B6823F480231360054B0022EB
:100E4000DA6000F00DF8054B4FF000629A6000BFC9
:100E500080BD00BF003802401030002400ED00E0EB
:100E600080B483B000AF00237B6000233B60354A31
:100E7000344B1B6843F480331360324B1B6803F41C
:100E800000333B607B6801337B603B68002B03D100
:100E90007B68B3F5A06FF0D12A4B1B6803F40033D5
:100EA000002B02D001233B6001E000233B603B6844
:100EB000012B42D1234A234B1B6C43F08053136414
:100EC000214A214B1B6843F4804313601D4A1D4B8C
:100ED0009B6893601B4A1B4B9B6843F400439360E1
:100EE000184A184B9B6843F4A0539360154B174A5C
:100EF0005A60144A134B1B6843F08073136000BFA1
:100F0000104B1B6803F00073002BF9D0104B40F21C
:100F100005621A600B4A0B4B9B6823F00303936036
:100F2000084A084B9B6843F00203936000BF054BDF
:100F30009B6803F00C03082BF9D100BF0C37BD46AA
:100F400080BC7047003802400070004008544007E1
:100F5000003C024080B483B000AF78607B681B68BF
:100F600023F001027B681A607B6800221A607B68AC
:100F700000225A607B6800229A607B680022DA6057
:100F80007B6800221A617B6821225A617B68454A8E
:100F9000934203D1444B3D229A607EE07B68434AF2
:100FA000934204D1404B4FF474629A6075E07B68C1
:100FB0003F4A934204D13C4B4FF474129A606CE068
:100FC0007B683C4A934204D1374B4FF074629A607D
:100FD00063E07B68384A934203D1334B374ADA6087
:100FE0005BE07B68364A934203D12F4B354ADA6087
:100FF00053E07B68344A934203D12B4B334ADA6087
:101000004BE07B68324A934204D1274B4FF03D526C
:10101000DA6042E07B682F4A934203D12E4B3D2297
:101020009A603AE07B682D4A934204D12A4B4FF4F0
:1010300074629A6031E07B68294A934204D1264B5E
:101040004FF474129A6028E07B68264A934204D1D8
:10105000214B4FF074629A601FE07B68224A9342F2
:1010600003D11D4B154ADA6017E07B681F4A934293
:1010700003D1194B134ADA600FE07B681C4A934294
:1010800003D1154B114ADA6007E07B68194A934295
:1010900003D1114B4FF03D52DA6000BF0C37BD4613
:1010A00080BC70471060024000600240286002402F
:1010B0004060024058600240706002403D000020E5
:1010C00088600240400F0020A060024000003D20E8
:1010D000B86002401064024000640240286402408C
:1010E00040640240586402407064024088640240D8
:1010F000A0640240B864024080B485B000AF78605C
:1011000039600023FB607B681B68FB60FA68244B36
:101110001340FB603B681A683B68DB681A433B6816
:101120005B691A433B689B691A433B68DB691A4356
:101130003B681B6A1A433B685B6A1A433B689B6ABD
:101140001A433B685B6B1A433B689B6B1343FA681B
:101150001343FB607B68FA681A607B685B69FB601D
:10116000FB6823F00703FB603B68DA6A3B681B6B94
:101170001343FA681343FB607B68FA685A613B6863
:101180001A697B685A603B685A687B689A603B685A
:101190009A687B68DA6000BF1437BD4680BC704730
:1011A0003F801CF080B483B000AF78600B46FB70CA
:1011B000FB78002B06D07B681B6843F001027B683C
:1011C0001A6005E07B681B6823F001027B681A60E7
:1011D00000BF0C37BD4680BC704700BF80B485B0EF
:1011E00000AFF860B9601346FB71BB6803F0800381
:1011F000002B0FD0FB79002B06D0FB685B6943F016
:101200008002FB685A6105E0FB685B6923F080029D
:10121000FB685A61BB68802B14D0FB79002B08D087
:10122000FB681A68BB6803F01E031A43FB681A6068
:1012300008E0FB681A68BB6803F01E03DB431A4032
:10124000FB681A6000BF1437BD4680BC704700BF02
:1012500080B487B000AF786039600023FB7500234D
:10126000FB600023BB607B68214A934202D8214B7C
:101270003B6101E0204B3B613B6823F0F02323F00E
:10128000C313002B0AD03B68DB0A03F01E03FB608C
:101290007B681A68FB681340BB6004E07B685B698D
:1012A00003F08003BB603B6803F00053002B03D0C6
:1012B0003B695B68FB6002E03B691B68FB60FB68A5
:1012C00023F0F02323F08213FB60FA683B6813409D
:1012D000002B05D0BB68002B02D00123FB7501E079
:1012E0000023FB75FB7D18461C37BD4680BC70474C
:1012F0000F640240006002400064024080B485B088
:1013000000AF786039607B68104A934202D8104B76
:10131000FB6001E00F4BFB603B6803F00053002BC8
:1013200007D03B6823F0F02323F08213FA68D360E0
:1013300006E03B6823F0F02323F08213FA68936001
:1013400000BF1437BD4680BC704700BF0F64024029
:10135000006002400064024080B582B000AF1B4BC9
:1013600000221A80194B00225A60184B00229A6002
:101370000023BB8017E00023FB800DE0BA881346F2
:101380009B0013449B011A44FB881344104A00211C
:10139000D154FB880133FB80FB88B3F5A07FEDD9E6
:1013A000BB880133BB80BB88EF2BE4D900F05CF82D
:1013B00000F0AEF800F03EF900F010F9054B1B68A4
:1013C000024A936000BF0837BD4680BD1C00002064
:1013D000280000208864024080B584B000AF034636
:1013E000FB710023BB8112E00023FB8108E0FA7946
:1013F000B989FB89184600F011F8FB890133FB819C
:10140000FB89B3F5A07FF2D3BB890133BB81BB89D4
:10141000EF2BE9D900BF1037BD4680BD80B483B043
:1014200000AF0346FB800B46BB801346FB70FB8876
:10143000B3F5A07F01D30023FB80BB88EF2B01D93C
:101440000023BB80BA8813469B0013449B011A44B7
:10145000FB8813440349FA78CA5400BF0C37BD46D1
:1014600080BC70472800002080B582B000AF012109
:101470001020FFF797FB4FF47F433B6001233B7144
:101480000023BB710123FB7103237B713B4619468B
:101490001D48FFF7E1FB1C4B4FF47F425A830121AB
:1014A0000220FFF77FFB4FF400633B6002233B7198
:1014B00003237B710023BB710123FB713B4619465B
:1014C0001248FFF7C9FB01220B211048FFF752FC1D
:1014D00001210220FFF766FB4FF480533B6001239C
:1014E0003B710023BB710123FB7103237B713B46DE
:1014F00019460648FFF7B0FB044B4FF480521A839D
:1015000000BF0837BD4680BD001002400004024005
:1015100080B588B000AF01210120FFF77FFB0B23CE
:10152000BB610023BB820023BB830023FB8207F146
:1015300014031946284800F0A9F901210120FFF7FA
:101540004FFB40F66B23BB610023BB820023BB83B0
:101550000023FB8207F1140319464FF0804000F08E
:1015600095F960233B8001237B804FF4D273BB60ED
:101570000223BB813B4619464FF0804000F030FA11
:1015800008214FF0804000F017FB60233B800123CF
:101590007B804FF4A073BB600223BB813B4619469E
:1015A0004FF0804000F0A2FA08214FF0804000F098
:1015B0001FFB0121084800F0D3F901214FF08040C2
:1015C00000F0CEF901214FF0804000F0E9F900BFB2
:1015D0002037BD4680BD00BF0000014080B582B00D
:1015E00000AF012210211248FFF7F8FD44233B71A0
:1015F00000237B710023BB710123FB713B1D184647
:1016000000F0E4F8012208214FF0804000F00EFBCA
:101610001C233B7100237B710023BB710123FB71F1
:101620003B1D184600F0D2F800BF0837BD4680BD0C
:101630008864024080B590B000AF01214FF4800073
:10164000FFF7B0FA00211B48FFF7ACFD1948FFF780
:1016500081FC4FF040637B60174BBB60174BFB6016
:1016600040233B6140F241137B610023BB614FF497
:101670008063FB6100233B6200237B620023BB622B
:101680004FF44033FB6200233B6301237B63002361
:10169000BB630023FB633B1D19460648FFF72CFD87
:1016A00001224FF48071064800F0F4FA00BF403781
:1016B000BD4680BD8864024015100240280000200D
:1016C0000000014080B500AF08214FF0804000F0DD
:1016D000D1FA264B1B8801339AB2244B1A80234B34
:1016E0001B88B3F5037F05D9204B00221A80204ABE
:1016F0001E4B5A601D4B1B88012B04D81D4B4FF409
:1017000080525A8303E01B4B4FF480521A83174BCD
:101710001B88232B27D9154B1B8840F202229342AA
:1017200021D8154A114B9B681360134A0F4B5B6815
:10173000D360124A114B1B889BB243F001039BB24A
:1017400013800D4A0C4B1B6843F001031360074BD9
:101750001B8803F00103002B05D0044B5B6803F2E8
:101760004113024A536000BF80BD00BF1C0000202F
:10177000280000200004024088640240000001406C
:1017800080B500AF0D490E48FFF762FD0346002B00
:1017900012D00A490A48FFF7B1FD0A4A094B1B88D3
:1017A0009BB223F001039BB21380054B00221A6009
:1017B000054B4FF47F425A8300BF80BD0088002054
:1017C00088640240000001400010024080B485B0EF
:1017D00000AF78600023FB730023BB730F237B7380
:1017E0007B68DB78002B38D0264BDB68DB4303F4C7
:1017F000E0631B0AFB73FB7BC3F10403BB737A7BBF
:10180000FB7B42FA03F37B737B685B781A46BB7BF6
:1018100002FA03F3FB737B689A787B7B1340DAB29E
:10182000FB7B1343FB73FB7B1B01FB73164A7B683B
:101830001B781344FA7B83F80023134A7B681B78D8
:101840005B09DBB218467B681B7803F01F0301219C
:1018500001FA03F342F820300FE00B497B681B7854
:101860005B09DBB218467B681B7803F01F0301227B
:101870009A4000F1200341F8232000BF1437BD46F1
:1018800080BC704700ED00E000E100E080B485B06E
:1018900000AF786039600023FB817B681B88FB8187
:1018A0007B68284A934213D07B68274A93420FD023
:1018B0007B68B3F1804F0BD07B68244A934207D0FA
:1018C0007B68234A934203D07B68224A934208D123
:1018D000FB8923F07003FB813B685A88FB89134323
:1018E000FB817B681C4A93420CD07B681B4A934265
:1018F00008D0FB8923F44073FB813B681A89FB897C
:101900001343FB817B68FA891A803B685A687B68BD
:10191000DA623B681A887B681A857B68094A9342B9
:1019200003D07B68084A934204D13B689B7A9AB201
:101930007B681A867B6801229A8200BF1437BD46F5
:1019400080BC7047000001400004014000040040DA
:1019500000080040000C004000100040001400404F
:1019600080B483B000AF78600B46FB70FB78002B2F
:1019700008D07B681B889BB243F080039AB27B68D7
:101980001A8007E07B681B889BB223F080039AB221
:101990007B681A8000BF0C37BD4680BC704700BF13
:1019A00080B483B000AF78600B46FB70FB78002BEF
:1019B00008D07B681B889BB243F001039AB27B6816
:1019C0001A8007E07B681B889BB223F001039AB260
:1019D0007B681A8000BF0C37BD4680BC704700BFD3
:1019E00080B485B000AF7860396000237B8100232C
:1019F000FB810023BB817B681B8C9BB223F480732B
:101A00009AB27B681A847B681B8CFB817B689B88FD
:101A1000BB817B689B8B7B817B8923F070037B81FF
:101A20007B8923F003037B813B681A887B891343FE
:101A30007B81FB8923F40073FB813B689B891B023C
:101A40009AB2FB891343FB813B685B881B029AB205
:101A5000FB891343FB817B68224A934203D07B6856
:101A6000214A93422BD1FB8923F40063FB813B681D
:101A7000DB891B029AB2FB891343FB81FB8923F4A8
:101A80008063FB813B689B881B029AB2FB891343EE
:101A9000FB81BB8923F48053BB81BB8923F40053B2
:101AA000BB813B681B8A1B019AB2BB891343BB8174
:101AB0003B685B8A1B019AB2BB891343BB817B687D
:101AC000BA899A807B687A899A833B689A687B682E
:101AD000DA637B68FA891A8400BF1437BD4680BC7C
:101AE000704700BF000001400004014080B485B091
:101AF00000AF786039600023BB8100237B81002325
:101B0000FB817B681B8C9BB223F480539AB27B6869
:101B10001A847B681B8C7B817B689B88FB817B683C
:101B20009B8BBB81BB8923F4E043BB81BB8923F43E
:101B30004073BB813B681B881B029AB2BB8913436D
:101B4000BB817B8923F400537B813B689B891B030A
:101B50009AB27B8913437B813B685B881B039AB2F3
:101B60007B8913437B817B68114A934203D07B6856
:101B7000104A93420AD1FB8923F48043FB813B68DE
:101B80001B8A9B019AB2FB891343FB817B68FA890C
:101B90009A807B68BA899A833B689A687B681A64E2
:101BA0007B687A891A8400BF1437BD4680BC7047B1
:101BB000000001400004014080B485B000AF7860AF
:101BC0000B467B800023FB817B689B8BFB81FB8921
:101BD00023F00803FB81FA897B881343FB817B6830
:101BE000FA899A8300BF1437BD4680BC704700BF96
:101BF00080B485B000AF78600B467B800023FB810A
:101C00007B689B8BFB81FB8923F40063FB817B88D2
:101C10001B029AB2FB891343FB817B68FA899A8382
:101C200000BF1437BD4680BC704700BF80B483B08E
:101C300000AF78600B467B8013467B707B78002B6F
:101C400008D07B689B899AB27B8813439AB27B68E1
:101C50009A8109E07B689B899AB27B88DB439BB2BF
:101C600013409AB27B689A8100BF0C37BD4680BC96
:101C7000704700BF80B483B000AF78600B467B80B4
:101C80007B88DB439AB27B681A8200BF0C37BD4663
:101C900080BC704780B483B000AF78600B467B8017
:101CA00013467B707B78002B08D07B689B899AB2A7
:101CB0007B8813439AB27B689A8109E07B689B8991
:101CC0009AB27B88DB439BB213409AB27B689A81BD
:101CD00000BF0C37BD4680BC704700BF80F000409D
:101CE00002E000BF81F0004142001FBF5FEA4103F4
:101CF00092EA030F7FEA226C7FEA236C6AD04FEAF4
:101D00001262D2EB1363C1BFD21841404840414038
:101D1000B8BF5B42192B88BF704710F0004F40F4EA
:101D2000000020F07F4018BF404211F0004F41F406
:101D3000000121F07F4118BF494292EA030F3FD0D2
:101D4000A2F1010241FA03FC10EB0C00C3F12003E5
:101D500001FA03F100F0004302D5494260EB400074
:101D6000B0F5000F13D3B0F1807F06D340084FEADF
:101D7000310102F10102FE2A51D2B1F1004F40EBD4
:101D8000C25008BF20F0010040EA0300704749003C
:101D900040EB000010F4000FA2F10102EDD1B0FA07
:101DA00080FCACF1080CB2EB0C0200FA0CF0AABFFC
:101DB00000EBC25052421843BCBFD040184370479A
:101DC00092F0000F81F4000106BF80F400000132A0
:101DD000013BB5E74FEA41037FEA226C18BF7FEA77
:101DE000236C21D092EA030F04D092F0000F08BFB9
:101DF0000846704790EA010F1CBF0020704712F0A0
:101E00007F4F04D1400028BF40F00040704712F1DE
:101E100000723CBF00F50000704700F0004343F043
:101E2000FE4040F4000070477FEA226216BF084679
:101E30007FEA23630146420206BF5FEA412390EA3C
:101E4000010F40F4800070474FF0000304E000BF32
:101E500010F0004348BF40425FEA000C08BF7047E3
:101E600043F0964301464FF000001CE050EA0102A7
:101E700008BF70474FF000030AE000BF50EA0102BC
:101E800008BF704711F0004302D5404261EB4101A9
:101E90005FEA010C02BF84460146002043F0B643CE
:101EA00008BFA3F18053A3F50003BCFA8CF2083AF3
:101EB000A3EBC25310DB01FA02FC634400FA02FCFC
:101EC000C2F12002BCF1004F20FA02F243EB020003
:101ED00008BF20F00100704702F1200201FA02FC65
:101EE000C2F1200250EA4C0021FA02F243EB020058
:101EF00008BF20EADC7070474FF0FF0C1CEAD0529C
:101F00001EBF1CEAD15392EA0C0F93EA0C0F6FD05C
:101F10001A4480EA010C400218BF5FEA41211ED03A
:101F20004FF0006343EA501043EA5111A0FB013126
:101F30000CF00040B1F5000F3EBF490041EAD371FB
:101F40005B0040EA010062F17F02FD2A1DD8B3F177
:101F5000004F40EBC25008BF20F00100704790F0E6
:101F6000000F0CF0004C08BF49024CEA502040EA38
:101F700051207F3AC2BFD2F1FF0340EAC2507047FE
:101F800040F400004FF00003013A5DDC12F1190F3C
:101F9000DCBF00F000407047C2F10002410021FAAE
:101FA00002F1C2F1200200FA02FC5FEA310040F1C6
:101FB000000053EA4C0308BF20EADC70704792F03F
:101FC000000F00F0004C02BF400010F4000F013A77
:101FD000F9D040EA0C0093F0000F01F0004C02BF72
:101FE000490011F4000F013BF9D041EA0C018FE7E1
:101FF0000CEAD15392EA0C0F18BF93EA0C0F0AD0E7
:1020000030F0004C18BF31F0004CD8D180EA01000C
:1020100000F00040704790F0000F17BF90F0004FA5
:10202000084691F0000F91F0004F14D092EA0C0F87
:1020300001D142020FD193EA0C0F03D14B0218BF1A
:10204000084608D180EA010000F0004040F0FE4060
:1020500040F40000704740F0FE4040F440007047FC
:102060004FF0FF0C1CEAD0521EBF1CEAD15392EA7B
:102070000C0F93EA0C0F69D0A2EB030280EA010C6B
:1020800049024FEA402037D04FF0805343EA111104
:1020900043EA10130CF000408B4238BF5B0042F162
:1020A0007D024FF4000C8B4224BF5B1A40EA0C0007
:1020B000B3EB510F24BFA3EB510340EA5C00B3EB39
:1020C000910F24BFA3EB910340EA9C00B3EBD10F27
:1020D00024BFA3EBD10340EADC001B0118BF5FEA79
:1020E0001C1CE0D1FD2A3FF650AF8B4240EBC250A2
:1020F00008BF20F0010070470CF0004C4CEA502063
:102100007F32C2BFD2F1FF0340EAC250704740F4B1
:1021100000004FF00003013A37E792F0000F00F0A3
:10212000004C02BF400010F4000F013AF9D040EA21
:102130000C0093F0000F01F0004C02BF490011F4B5
:10214000000F013BF9D041EA0C0195E70CEAD153AD
:1021500092EA0C0F08D142027FF47DAF93EA0C0F94
:102160007FF470AF084676E793EA0C0F04D14B0278
:102170003FF44CAF08466EE730F0004C18BF31F02A
:10218000004CCAD130F000427FF45CAF31F0004324
:102190007FF43CAF5FE700BF4FF0FF3C06E000BFBD
:1021A0004FF0010C02E000BF4FF0010C4DF804CDE0
:1021B0004FEA40024FEA41037FEA226C18BF7FEAF0
:1021C000236C11D001B052EA530C18BF90EA010FF2
:1021D00058BFB2EB030088BFC81738BF6FEAE17081
:1021E00018BF40F0010070477FEA226C02D15FEA1D
:1021F000402C05D17FEA236CE4D15FEA412CE1D089
:102200005DF8040B704700BF844608466146FFE74F
:102210000FB5FFF7C9FF002848BF10F1000F0FBD31
:102220004DF808EDFFF7F4FF0CBF012000205DF82A
:1022300008FB00BF4DF808EDFFF7EAFF34BF0120AF
:1022400000205DF808FB00BF4DF808EDFFF7E0FF48
:1022500094BF012000205DF808FB00BF4DF808ED99
:10226000FFF7D2FF94BF012000205DF808FB00BFFC
:102270004DF808EDFFF7C8FF34BF012000205DF8DE
:1022800008FB00BF4FEA4002B2F1FE4F0FD34FF000
:102290009E03B3EB12620DD94FEA002343F00043D3
:1022A00010F0004F23FA02F018BF404270474FF081
:1022B0000000704712F1610F01D1420205D110F008
:1022C000004008BF6FF0004070474FF000007047BB
:1022D00042000ED2B2F1FE4F0BD34FF09E03B3EB90
:1022E000126209D44FEA002343F0004323FA02F0BC
:1022F00070474FF00000704712F1610F01D14202A8
:1023000002D14FF0FF3070474FF00000704700BF20
:10231000000048430000C842000020410000C842BD
:0C232000000020410000C8420300000043
:0400000508000000EF
:00000001FF
